{
  "abi": [
    {
      "inputs": [
        {
          "internalType": "address",
          "name": "_tokenMessenger",
          "type": "address"
        },
        {
          "internalType": "uint32",
          "name": "_domainNumber",
          "type": "uint32"
        },
        {
          "internalType": "bytes32",
          "name": "_domainRecipient",
          "type": "bytes32"
        }
      ],
      "stateMutability": "nonpayable",
      "type": "constructor"
    },
    {
      "anonymous": false,
      "inputs": [
        {
          "indexed": true,
          "internalType": "uint64",
          "name": "nonce",
          "type": "uint64"
        },
        {
          "indexed": true,
          "internalType": "uint64",
          "name": "metadataNonce",
          "type": "uint64"
        },
        {
          "indexed": false,
          "internalType": "bytes",
          "name": "metadata",
          "type": "bytes"
        }
      ],
      "name": "DepositForBurnMetadata",
      "type": "event"
    },
    {
      "inputs": [
        {
          "internalType": "uint64",
          "name": "channel",
          "type": "uint64"
        },
        {
          "internalType": "bytes32",
          "name": "destinationRecipient",
          "type": "bytes32"
        },
        {
          "internalType": "uint256",
          "name": "amount",
          "type": "uint256"
        },
        {
          "internalType": "bytes32",
          "name": "mintRecipient",
          "type": "bytes32"
        },
        {
          "internalType": "address",
          "name": "burnToken",
          "type": "address"
        },
        {
          "internalType": "bytes",
          "name": "memo",
          "type": "bytes"
        }
      ],
      "name": "depositForBurn",
      "outputs": [
        {
          "internalType": "uint64",
          "name": "nonce",
          "type": "uint64"
        }
      ],
      "stateMutability": "nonpayable",
      "type": "function"
    },
    {
      "inputs": [
        {
          "internalType": "uint64",
          "name": "channel",
          "type": "uint64"
        },
        {
          "internalType": "bytes32",
          "name": "destinationRecipient",
          "type": "bytes32"
        },
        {
          "internalType": "uint256",
          "name": "amount",
          "type": "uint256"
        },
        {
          "internalType": "bytes32",
          "name": "mintRecipient",
          "type": "bytes32"
        },
        {
          "internalType": "address",
          "name": "burnToken",
          "type": "address"
        },
        {
          "internalType": "bytes32",
          "name": "destinationCaller",
          "type": "bytes32"
        },
        {
          "internalType": "bytes",
          "name": "memo",
          "type": "bytes"
        }
      ],
      "name": "depositForBurnWithCaller",
      "outputs": [
        {
          "internalType": "uint64",
          "name": "nonce",
          "type": "uint64"
        }
      ],
      "stateMutability": "nonpayable",
      "type": "function"
    },
    {
      "inputs": [],
      "name": "domainNumber",
      "outputs": [
        {
          "internalType": "uint32",
          "name": "",
          "type": "uint32"
        }
      ],
      "stateMutability": "view",
      "type": "function"
    },
    {
      "inputs": [],
      "name": "domainRecipient",
      "outputs": [
        {
          "internalType": "bytes32",
          "name": "",
          "type": "bytes32"
        }
      ],
      "stateMutability": "view",
      "type": "function"
    },
    {
      "inputs": [],
      "name": "messageTransmitter",
      "outputs": [
        {
          "internalType": "contract IMessageTransmitter",
          "name": "",
          "type": "address"
        }
      ],
      "stateMutability": "view",
      "type": "function"
    },
    {
      "inputs": [
        {
          "internalType": "uint256",
          "name": "amount",
          "type": "uint256"
        },
        {
          "internalType": "bytes32",
          "name": "mintRecipient",
          "type": "bytes32"
        },
        {
          "internalType": "address",
          "name": "burnToken",
          "type": "address"
        },
        {
          "internalType": "bytes",
          "name": "metadata",
          "type": "bytes"
        }
      ],
      "name": "rawDepositForBurn",
      "outputs": [
        {
          "internalType": "uint64",
          "name": "nonce",
          "type": "uint64"
        }
      ],
      "stateMutability": "nonpayable",
      "type": "function"
    },
    {
      "inputs": [
        {
          "internalType": "uint256",
          "name": "amount",
          "type": "uint256"
        },
        {
          "internalType": "bytes32",
          "name": "mintRecipient",
          "type": "bytes32"
        },
        {
          "internalType": "address",
          "name": "burnToken",
          "type": "address"
        },
        {
          "internalType": "bytes32",
          "name": "destinationCaller",
          "type": "bytes32"
        },
        {
          "internalType": "bytes",
          "name": "metadata",
          "type": "bytes"
        }
      ],
      "name": "rawDepositForBurnWithCaller",
      "outputs": [
        {
          "internalType": "uint64",
          "name": "nonce",
          "type": "uint64"
        }
      ],
      "stateMutability": "nonpayable",
      "type": "function"
    },
    {
      "inputs": [],
      "name": "tokenMessenger",
      "outputs": [
        {
          "internalType": "contract TokenMessenger",
          "name": "",
          "type": "address"
        }
      ],
      "stateMutability": "view",
      "type": "function"
    }
  ],
  "bytecode": {
    "object": "0x60e060405234801561001057600080fd5b506040516110cd3803806110cd8339818101604052606081101561003357600080fd5b50805160208201516040909201519091906001600160a01b03831661009f576040805162461bcd60e51b815260206004820152601660248201527f546f6b656e4d657373656e676572206e6f742073657400000000000000000000604482015290519081900360640190fd5b600080546001600160a01b0319166001600160a01b03858116919091179182905560408051632c12192160e01b815290519290911691632c12192191600480820192602092909190829003018186803b1580156100fb57600080fd5b505afa15801561010f573d6000803e3d6000fd5b505050506040513d602081101561012557600080fd5b5051606081901b6001600160601b03191660805260e083901b6001600160e01b03191660a05260c08290526001600160a01b0316925063ffffffff90911690610f1e6101af6000398061070f52806109ea5280610d3952508061050352806106ee528061093c5280610b345280610d185250806106bf52806109c65280610ce95250610f1e6000f3fe608060405234801561001057600080fd5b50600436106100885760003560e01c80635ac6b5741161005b5780635ac6b574146102545780637b04c181146102f9578063e95f121914610301578063f1e788d41461031b57610088565b8063042734ee1461008d5780630d38781a1461016f578063461178301461020f57806352d440ea14610233575b600080fd5b610152600480360360a08110156100a357600080fd5b8135916020810135916001600160a01b036040830135169160608101359181019060a081016080820135600160201b8111156100de57600080fd5b8201836020820111156100f057600080fd5b803590602001918460018302840111600160201b8311171561011157600080fd5b91908080601f0160208091040260200160405190810160405280939291908181526020018383808284376000920191909152509295506103db945050505050565b6040805167ffffffffffffffff9092168252519081900360200190f35b610152600480360360c081101561018557600080fd5b67ffffffffffffffff823516916020810135916040820135916060810135916001600160a01b03608083013516919081019060c0810160a0820135600160201b8111156101d157600080fd5b8201836020820111156101e357600080fd5b803590602001918460018302840111600160201b8311171561020457600080fd5b5090925090506108c7565b61021761092b565b604080516001600160a01b039092168252519081900360200190f35b61023b61093a565b6040805163ffffffff9092168252519081900360200190f35b610152600480360360e081101561026a57600080fd5b67ffffffffffffffff823516916020810135916040820135916060810135916001600160a01b036080830135169160a08101359181019060e0810160c0820135600160201b8111156102bb57600080fd5b8201836020820111156102cd57600080fd5b803590602001918460018302840111600160201b831117156102ee57600080fd5b50909250905061095e565b6102176109c4565b6103096109e8565b60408051918252519081900360200190f35b6101526004803603608081101561033157600080fd5b8135916020810135916001600160a01b036040830135169190810190608081016060820135600160201b81111561036757600080fd5b82018360208201111561037957600080fd5b803590602001918460018302840111600160201b8311171561039a57600080fd5b91908080601f016020809104026020016040519081016040528093929190818152602001838380828437600092019190915250929550610a0c945050505050565b604080516323b872dd60e01b815233600482015230602482015260448101879052905160009185916001600160a01b038316916323b872dd91606480830192602092919082900301818887803b15801561043457600080fd5b505af1158015610448573d6000803e3d6000fd5b505050506040513d602081101561045e57600080fd5b5050600080546040805163095ea7b360e01b81526001600160a01b039283166004820152602481018b905290519184169263095ea7b3926044808401936020939083900390910190829087803b1580156104b757600080fd5b505af11580156104cb573d6000803e3d6000fd5b505050506040513d60208110156104e157600080fd5b50506000805460408051637c2b6edb60e11b8152600481018b905263ffffffff7f0000000000000000000000000000000000000000000000000000000000000000166024820152604481018a90526001600160a01b038981166064830152608482018990529151919092169263f856ddb69260a480820193602093909283900390910190829087803b15801561057657600080fd5b505af115801561058a573d6000803e3d6000fd5b505050506040513d60208110156105a057600080fd5b5051604080516382c947b760e01b8152336004820152905191935060009173__$0163656a4df1aac712416ff9309e0048e0$__916382c947b7916024808301926020929190829003018186803b1580156105f957600080fd5b505af415801561060d573d6000803e3d6000fd5b505050506040513d602081101561062357600080fd5b50516040516001600160c01b031960c086901b166020828101918252602883018490528751939450600093879386938a939092604890920191908401908083835b602083106106835780518252601f199092019160209182019101610664565b6001836020036101000a0380198251168184511680821785525050505050509050019350505050604051602081830303815290604052905060007f00000000000000000000000000000000000000000000000000000000000000006001600160a01b031663f7259a757f00000000000000000000000000000000000000000000000000000000000000007f00000000000000000000000000000000000000000000000000000000000000008a866040518563ffffffff1660e01b8152600401808563ffffffff16815260200184815260200183815260200180602001828103825283818151815260200191508051906020019080838360005b8381101561079457818101518382015260200161077c565b50505050905090810190601f1680156107c15780820380516001836020036101000a031916815260200191505b5095505050505050602060405180830381600087803b1580156107e357600080fd5b505af11580156107f7573d6000803e3d6000fd5b505050506040513d602081101561080d57600080fd5b5051604080516020808252895182820152895193945067ffffffffffffffff80861694908a16937f4c307f410548552b5dcf79f57f3f1f0b2c9dca65ec77d0fd78e8d476a7754772938c939092839283019185019080838360005b83811015610880578181015183820152602001610868565b50505050905090810190601f1680156108ad5780820380516001836020036101000a031916815260200191505b509250505060405180910390a35050505095945050505050565b60008088888585604051602001808567ffffffffffffffff1660c01b815260080184815260200183838082843780830192505050945050505050604051602081830303815290604052905061091e87878784610a0c565b9998505050505050505050565b6000546001600160a01b031681565b7f000000000000000000000000000000000000000000000000000000000000000081565b60008089898585604051602001808567ffffffffffffffff1660c01b81526008018481526020018383808284378083019250505094505050505060405160208183030381529060405290506109b688888888856103db565b9a9950505050505050505050565b7f000000000000000000000000000000000000000000000000000000000000000081565b7f000000000000000000000000000000000000000000000000000000000000000081565b604080516323b872dd60e01b815233600482015230602482015260448101869052905160009184916001600160a01b038316916323b872dd91606480830192602092919082900301818887803b158015610a6557600080fd5b505af1158015610a79573d6000803e3d6000fd5b505050506040513d6020811015610a8f57600080fd5b5050600080546040805163095ea7b360e01b81526001600160a01b039283166004820152602481018a905290519184169263095ea7b3926044808401936020939083900390910190829087803b158015610ae857600080fd5b505af1158015610afc573d6000803e3d6000fd5b505050506040513d6020811015610b1257600080fd5b505060008054604080516337e9a82760e11b8152600481018a905263ffffffff7f0000000000000000000000000000000000000000000000000000000000000000166024820152604481018990526001600160a01b03888116606483015291519190921692636fd3504e92608480820193602093909283900390910190829087803b158015610ba057600080fd5b505af1158015610bb4573d6000803e3d6000fd5b505050506040513d6020811015610bca57600080fd5b5051604080516382c947b760e01b8152336004820152905191935060009173__$0163656a4df1aac712416ff9309e0048e0$__916382c947b7916024808301926020929190829003018186803b158015610c2357600080fd5b505af4158015610c37573d6000803e3d6000fd5b505050506040513d6020811015610c4d57600080fd5b50516040516001600160c01b031960c086901b166020828101918252602883018490528751939450600093879386938a939092604890920191908401908083835b60208310610cad5780518252601f199092019160209182019101610c8e565b6001836020036101000a0380198251168184511680821785525050505050509050019350505050604051602081830303815290604052905060007f00000000000000000000000000000000000000000000000000000000000000006001600160a01b0316630ba469bc7f00000000000000000000000000000000000000000000000000000000000000007f0000000000000000000000000000000000000000000000000000000000000000856040518463ffffffff1660e01b8152600401808463ffffffff16815260200183815260200180602001828103825283818151815260200191508051906020019080838360005b83811015610db7578181015183820152602001610d9f565b50505050905090810190601f168015610de45780820380516001836020036101000a031916815260200191505b50945050505050602060405180830381600087803b158015610e0557600080fd5b505af1158015610e19573d6000803e3d6000fd5b505050506040513d6020811015610e2f57600080fd5b5051604080516020808252895182820152895193945067ffffffffffffffff80861694908a16937f4c307f410548552b5dcf79f57f3f1f0b2c9dca65ec77d0fd78e8d476a7754772938c939092839283019185019080838360005b83811015610ea2578181015183820152602001610e8a565b50505050905090810190601f168015610ecf5780820380516001836020036101000a031916815260200191505b509250505060405180910390a35050505094935050505056fea2646970667358221220e9b7001c6b41c0297c85afe3feed12a99bab1d61e90f184c4a30e98a7fe83b7964736f6c63430007060033",
    "linkReferences": {
      "lib/evm-cctp-contracts/src/messages/Message.sol": {
        "Message": [
          {
            "start": 1903,
            "length": 20
          },
          {
            "start": 3481,
            "length": 20
          }
        ]
      }
    }
  },
  "methodIdentifiers": {
    "depositForBurn(uint64,bytes32,uint256,bytes32,address,bytes)": "0d38781a",
    "depositForBurnWithCaller(uint64,bytes32,uint256,bytes32,address,bytes32,bytes)": "5ac6b574",
    "domainNumber()": "52d440ea",
    "domainRecipient()": "e95f1219",
    "messageTransmitter()": "7b04c181",
    "rawDepositForBurn(uint256,bytes32,address,bytes)": "f1e788d4",
    "rawDepositForBurnWithCaller(uint256,bytes32,address,bytes32,bytes)": "042734ee",
    "tokenMessenger()": "46117830"
  },
  "id": 35
}