{
  "abi": [
    {
      "inputs": [
        {
          "internalType": "address",
          "name": "_tokenMessenger",
          "type": "address"
        },
        {
          "internalType": "uint32",
          "name": "_domainNumber",
          "type": "uint32"
        },
        {
          "internalType": "bytes32",
          "name": "_domainRecipient",
          "type": "bytes32"
        }
      ],
      "stateMutability": "nonpayable",
      "type": "constructor"
    },
    {
      "anonymous": false,
      "inputs": [
        {
          "indexed": true,
          "internalType": "uint64",
          "name": "nonce",
          "type": "uint64"
        },
        {
          "indexed": true,
          "internalType": "uint64",
          "name": "metadataNonce",
          "type": "uint64"
        },
        {
          "indexed": false,
          "internalType": "bytes",
          "name": "metadata",
          "type": "bytes"
        }
      ],
      "name": "DepositForBurnMetadata",
      "type": "event"
    },
    {
      "inputs": [
        {
          "internalType": "uint64",
          "name": "channel",
          "type": "uint64"
        },
        {
          "internalType": "bytes32",
          "name": "destinationBech32Prefix",
          "type": "bytes32"
        },
        {
          "internalType": "bytes32",
          "name": "destinationRecipient",
          "type": "bytes32"
        },
        {
          "internalType": "uint256",
          "name": "amount",
          "type": "uint256"
        },
        {
          "internalType": "bytes32",
          "name": "mintRecipient",
          "type": "bytes32"
        },
        {
          "internalType": "address",
          "name": "burnToken",
          "type": "address"
        },
        {
          "internalType": "bytes",
          "name": "memo",
          "type": "bytes"
        }
      ],
      "name": "depositForBurn",
      "outputs": [
        {
          "internalType": "uint64",
          "name": "nonce",
          "type": "uint64"
        }
      ],
      "stateMutability": "nonpayable",
      "type": "function"
    },
    {
      "inputs": [
        {
          "internalType": "uint64",
          "name": "channel",
          "type": "uint64"
        },
        {
          "internalType": "bytes32",
          "name": "destinationBech32Prefix",
          "type": "bytes32"
        },
        {
          "internalType": "bytes32",
          "name": "destinationRecipient",
          "type": "bytes32"
        },
        {
          "internalType": "uint256",
          "name": "amount",
          "type": "uint256"
        },
        {
          "internalType": "bytes32",
          "name": "mintRecipient",
          "type": "bytes32"
        },
        {
          "internalType": "address",
          "name": "burnToken",
          "type": "address"
        },
        {
          "internalType": "bytes32",
          "name": "destinationCaller",
          "type": "bytes32"
        },
        {
          "internalType": "bytes",
          "name": "memo",
          "type": "bytes"
        }
      ],
      "name": "depositForBurnWithCaller",
      "outputs": [
        {
          "internalType": "uint64",
          "name": "nonce",
          "type": "uint64"
        }
      ],
      "stateMutability": "nonpayable",
      "type": "function"
    },
    {
      "inputs": [],
      "name": "domainNumber",
      "outputs": [
        {
          "internalType": "uint32",
          "name": "",
          "type": "uint32"
        }
      ],
      "stateMutability": "view",
      "type": "function"
    },
    {
      "inputs": [],
      "name": "domainRecipient",
      "outputs": [
        {
          "internalType": "bytes32",
          "name": "",
          "type": "bytes32"
        }
      ],
      "stateMutability": "view",
      "type": "function"
    },
    {
      "inputs": [],
      "name": "messageTransmitter",
      "outputs": [
        {
          "internalType": "contract MessageTransmitter",
          "name": "",
          "type": "address"
        }
      ],
      "stateMutability": "view",
      "type": "function"
    },
    {
      "inputs": [],
      "name": "tokenMessenger",
      "outputs": [
        {
          "internalType": "contract TokenMessenger",
          "name": "",
          "type": "address"
        }
      ],
      "stateMutability": "view",
      "type": "function"
    }
  ],
  "bytecode": {
    "object": "0x60e060405234801561001057600080fd5b50604051610ea9380380610ea98339818101604052606081101561003357600080fd5b50805160208201516040909201519091906001600160a01b03831661009f576040805162461bcd60e51b815260206004820152601660248201527f546f6b656e4d657373656e676572206e6f742073657400000000000000000000604482015290519081900360640190fd5b600080546001600160a01b0319166001600160a01b03858116919091179182905560408051632c12192160e01b815290519290911691632c12192191600480820192602092909190829003018186803b1580156100fb57600080fd5b505afa15801561010f573d6000803e3d6000fd5b505050506040513d602081101561012557600080fd5b5051606081901b6001600160601b03191660805260e083901b6001600160e01b03191660a05260c08290526001600160a01b0316925063ffffffff90911690610cf06101b9600039806105f252806107b15280610ae852508061025352806104ee52806105d15280610a125280610ab9525080610277528061029e52806105a252806107d85280610b285250610cf06000f3fe608060405234801561001057600080fd5b50600436106100625760003560e01c8063461178301461006757806352d440ea1461008b5780637b04c181146100ac578063ded8b709146100b4578063e95f121914610181578063ea04e66c1461019b575b600080fd5b61006f610242565b604080516001600160a01b039092168252519081900360200190f35b610093610251565b6040805163ffffffff9092168252519081900360200190f35b61006f610275565b61016460048036036101008110156100cb57600080fd5b67ffffffffffffffff823516916020810135916040820135916060810135916080820135916001600160a01b0360a0820135169160c08201359190810190610100810160e082013564010000000081111561012557600080fd5b82018360208201111561013757600080fd5b8035906020019184600183028401116401000000008311171561015957600080fd5b509092509050610299565b6040805167ffffffffffffffff9092168252519081900360200190f35b6101896107af565b60408051918252519081900360200190f35b610164600480360360e08110156101b157600080fd5b67ffffffffffffffff823516916020810135916040820135916060810135916080820135916001600160a01b0360a0820135169181019060e0810160c082013564010000000081111561020357600080fd5b82018360208201111561021557600080fd5b8035906020019184600183028401116401000000008311171561023757600080fd5b5090925090506107d3565b6000546001600160a01b031681565b7f000000000000000000000000000000000000000000000000000000000000000081565b7f000000000000000000000000000000000000000000000000000000000000000081565b6000807f00000000000000000000000000000000000000000000000000000000000000006001600160a01b0316638371744e6040518163ffffffff1660e01b815260040160206040518083038186803b1580156102f557600080fd5b505afa158015610309573d6000803e3d6000fd5b505050506040513d602081101561031f57600080fd5b810190808051906020019092919050505090506000336001600160a01b031660001b9050600082828e8e8e8a8a604051602001808867ffffffffffffffff1660c01b81526008018781526020018667ffffffffffffffff1660c01b81526008018581526020018481526020018383808284378083019250505097505050505050505060405160208183030381529060405290506000889050806001600160a01b03166323b872dd33308e6040518463ffffffff1660e01b815260040180846001600160a01b03168152602001836001600160a01b031681526020018281526020019350505050602060405180830381600087803b15801561041f57600080fd5b505af1158015610433573d6000803e3d6000fd5b505050506040513d602081101561044957600080fd5b5050600080546040805163095ea7b360e01b81526001600160a01b039283166004820152602481018f905290519184169263095ea7b3926044808401936020939083900390910190829087803b1580156104a257600080fd5b505af11580156104b6573d6000803e3d6000fd5b505050506040513d60208110156104cc57600080fd5b50506000805460408051637c2b6edb60e11b8152600481018f905263ffffffff7f0000000000000000000000000000000000000000000000000000000000000000166024820152604481018e90526001600160a01b038d81166064830152608482018d90529151919092169263f856ddb69260a480820193602093909283900390910190829087803b15801561056157600080fd5b505af1158015610575573d6000803e3d6000fd5b505050506040513d602081101561058b57600080fd5b8101908080519060200190929190505050945060007f00000000000000000000000000000000000000000000000000000000000000006001600160a01b031663f7259a757f00000000000000000000000000000000000000000000000000000000000000007f00000000000000000000000000000000000000000000000000000000000000008c876040518563ffffffff1660e01b8152600401808563ffffffff16815260200184815260200183815260200180602001828103825283818151815260200191508051906020019080838360005b8381101561067757818101518382015260200161065f565b50505050905090810190601f1680156106a45780820380516001836020036101000a031916815260200191505b5095505050505050602060405180830381600087803b1580156106c657600080fd5b505af11580156106da573d6000803e3d6000fd5b505050506040513d60208110156106f057600080fd5b5051604080516020808252865182820152865193945067ffffffffffffffff80861694908b16937f4c307f410548552b5dcf79f57f3f1f0b2c9dca65ec77d0fd78e8d476a77547729389939092839283019185019080838360005b8381101561076357818101518382015260200161074b565b50505050905090810190601f1680156107905780820380516001836020036101000a031916815260200191505b509250505060405180910390a350505050509998505050505050505050565b7f000000000000000000000000000000000000000000000000000000000000000081565b6000807f00000000000000000000000000000000000000000000000000000000000000006001600160a01b0316638371744e6040518163ffffffff1660e01b815260040160206040518083038186803b15801561082f57600080fd5b505afa158015610843573d6000803e3d6000fd5b505050506040513d602081101561085957600080fd5b50516040516001600160c01b031960c083811b8216602084019081523360288501819052918f901b9092166048840152605083018d9052607083018c9052929350600091849184918f918f918f918c918c91906090018383808284378083019250505097505050505050505060405160208183030381529060405290506000879050806001600160a01b03166323b872dd33308d6040518463ffffffff1660e01b815260040180846001600160a01b03168152602001836001600160a01b031681526020018281526020019350505050602060405180830381600087803b15801561094357600080fd5b505af1158015610957573d6000803e3d6000fd5b505050506040513d602081101561096d57600080fd5b5050600080546040805163095ea7b360e01b81526001600160a01b039283166004820152602481018e905290519184169263095ea7b3926044808401936020939083900390910190829087803b1580156109c657600080fd5b505af11580156109da573d6000803e3d6000fd5b505050506040513d60208110156109f057600080fd5b505060008054604080516337e9a82760e11b8152600481018e905263ffffffff7f0000000000000000000000000000000000000000000000000000000000000000166024820152604481018d90526001600160a01b038c8116606483015291519190921692636fd3504e92608480820193602093909283900390910190829087803b158015610a7e57600080fd5b505af1158015610a92573d6000803e3d6000fd5b505050506040513d6020811015610aa857600080fd5b50516040516302e91a6f60e21b81527f000000000000000000000000000000000000000000000000000000000000000063ffffffff8116600483019081527f000000000000000000000000000000000000000000000000000000000000000060248401819052606060448501908152875160648601528751959a506000957f00000000000000000000000000000000000000000000000000000000000000006001600160a01b031695630ba469bc95948a93909290916084019060208501908083838d5b83811015610b84578181015183820152602001610b6c565b50505050905090810190601f168015610bb15780820380516001836020036101000a031916815260200191505b50945050505050602060405180830381600087803b158015610bd257600080fd5b505af1158015610be6573d6000803e3d6000fd5b505050506040513d6020811015610bfc57600080fd5b5051604080516020808252865182820152865193945067ffffffffffffffff80861694908b16937f4c307f410548552b5dcf79f57f3f1f0b2c9dca65ec77d0fd78e8d476a77547729389939092839283019185019080838360005b83811015610c6f578181015183820152602001610c57565b50505050905090810190601f168015610c9c5780820380516001836020036101000a031916815260200191505b509250505060405180910390a350505050509897505050505050505056fea264697066735822122094a2fc6e8be12dddc3f619e66570832462295dd595f2d376bd21cdb389301e3964736f6c63430007060033",
    "linkReferences": {}
  },
  "methodIdentifiers": {
    "depositForBurn(uint64,bytes32,bytes32,uint256,bytes32,address,bytes)": "ea04e66c",
    "depositForBurnWithCaller(uint64,bytes32,bytes32,uint256,bytes32,address,bytes32,bytes)": "ded8b709",
    "domainNumber()": "52d440ea",
    "domainRecipient()": "e95f1219",
    "messageTransmitter()": "7b04c181",
    "tokenMessenger()": "46117830"
  },
  "id": 35
}